{
  "contractName": "Pos",
  "abi": [
    {
      "inputs": [],
      "name": "connectionMessage",
      "outputs": [
        {
          "internalType": "string",
          "name": "",
          "type": "string"
        }
      ],
      "stateMutability": "view",
      "type": "function",
      "constant": true
    },
    {
      "inputs": [],
      "name": "getConnectionMessage",
      "outputs": [
        {
          "internalType": "string",
          "name": "",
          "type": "string"
        }
      ],
      "stateMutability": "view",
      "type": "function",
      "constant": true
    },
    {
      "inputs": [
        {
          "internalType": "string",
          "name": "_connectionMessage",
          "type": "string"
        }
      ],
      "name": "setConnectionMessage",
      "outputs": [],
      "stateMutability": "nonpayable",
      "type": "function"
    },
    {
      "inputs": [
        {
          "internalType": "string",
          "name": "_barcode",
          "type": "string"
        }
      ],
      "name": "getProductInfo",
      "outputs": [
        {
          "components": [
            {
              "internalType": "uint256",
              "name": "id",
              "type": "uint256"
            },
            {
              "internalType": "string",
              "name": "name",
              "type": "string"
            },
            {
              "internalType": "uint256",
              "name": "price",
              "type": "uint256"
            },
            {
              "internalType": "uint256",
              "name": "stock",
              "type": "uint256"
            },
            {
              "internalType": "bool",
              "name": "isSell",
              "type": "bool"
            }
          ],
          "internalType": "struct Pos.Product",
          "name": "",
          "type": "tuple"
        }
      ],
      "stateMutability": "view",
      "type": "function",
      "constant": true
    },
    {
      "inputs": [
        {
          "internalType": "string",
          "name": "_barcode",
          "type": "string"
        },
        {
          "internalType": "string",
          "name": "_name",
          "type": "string"
        },
        {
          "internalType": "uint256",
          "name": "_price",
          "type": "uint256"
        },
        {
          "internalType": "uint256",
          "name": "_stock",
          "type": "uint256"
        },
        {
          "internalType": "bool",
          "name": "_isSell",
          "type": "bool"
        }
      ],
      "name": "addProduct",
      "outputs": [
        {
          "internalType": "bool",
          "name": "",
          "type": "bool"
        }
      ],
      "stateMutability": "nonpayable",
      "type": "function"
    },
    {
      "inputs": [
        {
          "internalType": "string",
          "name": "_barcode",
          "type": "string"
        },
        {
          "internalType": "string",
          "name": "_name",
          "type": "string"
        },
        {
          "internalType": "uint256",
          "name": "_price",
          "type": "uint256"
        },
        {
          "internalType": "uint256",
          "name": "_stock",
          "type": "uint256"
        },
        {
          "internalType": "bool",
          "name": "_isSell",
          "type": "bool"
        }
      ],
      "name": "editProduct",
      "outputs": [
        {
          "internalType": "bool",
          "name": "",
          "type": "bool"
        }
      ],
      "stateMutability": "nonpayable",
      "type": "function"
    },
    {
      "inputs": [
        {
          "internalType": "string",
          "name": "_barcode",
          "type": "string"
        }
      ],
      "name": "sellProduct",
      "outputs": [
        {
          "internalType": "bool",
          "name": "",
          "type": "bool"
        }
      ],
      "stateMutability": "nonpayable",
      "type": "function"
    }
  ],
  "bytecode": "0x60806040526040518060400160405280601881526020017f436f6e6e656374696f6e2053756363657373204261626521000000000000000081525060009080519060200190620000519291906200006b565b5060006002553480156200006457600080fd5b5062000180565b82805462000079906200014a565b90600052602060002090601f0160209004810192826200009d5760008555620000e9565b82601f10620000b857805160ff1916838001178555620000e9565b82800160010185558215620000e9579182015b82811115620000e8578251825591602001919060010190620000cb565b5b509050620000f89190620000fc565b5090565b5b8082111562000117576000816000905550600101620000fd565b5090565b7f4e487b7100000000000000000000000000000000000000000000000000000000600052602260045260246000fd5b600060028204905060018216806200016357607f821691505b602082108114156200017a57620001796200011b565b5b50919050565b61108680620001906000396000f3fe608060405234801561001057600080fd5b506004361061007d5760003560e01c80639071fcf41161005b5780639071fcf414610100578063b45fe2601461011e578063b9d3870e1461013a578063bf9ed1b11461016a5761007d565b80631124e998146100825780632ec0287c146100a057806357ba11b0146100d0575b600080fd5b61008a61019a565b60405161009791906109a0565b60405180910390f35b6100ba60048036038101906100b59190610b0b565b610228565b6040516100c79190610b6f565b60405180910390f35b6100ea60048036038101906100e59190610b0b565b61041d565b6040516100f79190610c72565b60405180910390f35b610108610520565b60405161011591906109a0565b60405180910390f35b61013860048036038101906101339190610b0b565b6105b2565b005b610154600480360381019061014f9190610cec565b6105cc565b6040516101619190610b6f565b60405180910390f35b610184600480360381019061017f9190610cec565b610700565b6040516101919190610b6f565b60405180910390f35b600080546101a790610dce565b80601f01602080910402602001604051908101604052809291908181526020018280546101d390610dce565b80156102205780601f106101f557610100808354040283529160200191610220565b820191906000526020600020905b81548152906001019060200180831161020357829003601f168201915b505050505081565b60008060018360405161023b9190610e3c565b90815260200160405180910390206040518060a00160405290816000820154815260200160018201805461026e90610dce565b80601f016020809104026020016040519081016040528092919081815260200182805461029a90610dce565b80156102e75780601f106102bc576101008083540402835291602001916102e7565b820191906000526020600020905b8154815290600101906020018083116102ca57829003601f168201915b5050505050815260200160028201548152602001600382015481526020016004820160009054906101000a900460ff16151515158152505090506000151581608001511515148061033c575060008160600151145b1561037c576040517f08c379a000000000000000000000000000000000000000000000000000000000815260040161037390610e9f565b60405180910390fd5b60018160600181815161038f9190610eee565b91508181525050806001846040516103a79190610e3c565b90815260200160405180910390206000820151816000015560208201518160010190805190602001906103db929190610833565b50604082015181600201556060820151816003015560808201518160040160006101000a81548160ff0219169083151502179055509050506001915050919050565b6104256108b9565b6001826040516104359190610e3c565b90815260200160405180910390206040518060a00160405290816000820154815260200160018201805461046890610dce565b80601f016020809104026020016040519081016040528092919081815260200182805461049490610dce565b80156104e15780601f106104b6576101008083540402835291602001916104e1565b820191906000526020600020905b8154815290600101906020018083116104c457829003601f168201915b5050505050815260200160028201548152602001600382015481526020016004820160009054906101000a900460ff1615151515815250509050919050565b60606000805461052f90610dce565b80601f016020809104026020016040519081016040528092919081815260200182805461055b90610dce565b80156105a85780601f1061057d576101008083540402835291602001916105a8565b820191906000526020600020905b81548152906001019060200180831161058b57829003601f168201915b5050505050905090565b80600090805190602001906105c8929190610833565b5050565b6000806001876040516105df9190610e3c565b9081526020016040518091039020600001541415610632576040517f08c379a000000000000000000000000000000000000000000000000000000000815260040161062990610f6e565b60405180910390fd5b6001600260008282546106459190610f8e565b925050819055506040518060a0016040528060025481526020018681526020018581526020018481526020018315158152506001876040516106879190610e3c565b90815260200160405180910390206000820151816000015560208201518160010190805190602001906106bb929190610833565b50604082015181600201556060820151816003015560808201518160040160006101000a81548160ff0219169083151502179055509050506001905095945050505050565b6000806001876040516107139190610e3c565b90815260200160405180910390206000015414610765576040517f08c379a000000000000000000000000000000000000000000000000000000000815260040161075c90611030565b60405180910390fd5b6001600260008282546107789190610f8e565b925050819055506040518060a0016040528060025481526020018681526020018581526020018481526020018315158152506001876040516107ba9190610e3c565b90815260200160405180910390206000820151816000015560208201518160010190805190602001906107ee929190610833565b50604082015181600201556060820151816003015560808201518160040160006101000a81548160ff0219169083151502179055509050506001905095945050505050565b82805461083f90610dce565b90600052602060002090601f01602090048101928261086157600085556108a8565b82601f1061087a57805160ff19168380011785556108a8565b828001600101855582156108a8579182015b828111156108a757825182559160200191906001019061088c565b5b5090506108b591906108ea565b5090565b6040518060a00160405280600081526020016060815260200160008152602001600081526020016000151581525090565b5b808211156109035760008160009055506001016108eb565b5090565b600081519050919050565b600082825260208201905092915050565b60005b83811015610941578082015181840152602081019050610926565b83811115610950576000848401525b50505050565b6000601f19601f8301169050919050565b600061097282610907565b61097c8185610912565b935061098c818560208601610923565b61099581610956565b840191505092915050565b600060208201905081810360008301526109ba8184610967565b905092915050565b6000604051905090565b600080fd5b600080fd5b600080fd5b600080fd5b7f4e487b7100000000000000000000000000000000000000000000000000000000600052604160045260246000fd5b610a1882610956565b810181811067ffffffffffffffff82111715610a3757610a366109e0565b5b80604052505050565b6000610a4a6109c2565b9050610a568282610a0f565b919050565b600067ffffffffffffffff821115610a7657610a756109e0565b5b610a7f82610956565b9050602081019050919050565b82818337600083830152505050565b6000610aae610aa984610a5b565b610a40565b905082815260208101848484011115610aca57610ac96109db565b5b610ad5848285610a8c565b509392505050565b600082601f830112610af257610af16109d6565b5b8135610b02848260208601610a9b565b91505092915050565b600060208284031215610b2157610b206109cc565b5b600082013567ffffffffffffffff811115610b3f57610b3e6109d1565b5b610b4b84828501610add565b91505092915050565b60008115159050919050565b610b6981610b54565b82525050565b6000602082019050610b846000830184610b60565b92915050565b6000819050919050565b610b9d81610b8a565b82525050565b600082825260208201905092915050565b6000610bbf82610907565b610bc98185610ba3565b9350610bd9818560208601610923565b610be281610956565b840191505092915050565b610bf681610b54565b82525050565b600060a083016000830151610c146000860182610b94565b5060208301518482036020860152610c2c8282610bb4565b9150506040830151610c416040860182610b94565b506060830151610c546060860182610b94565b506080830151610c676080860182610bed565b508091505092915050565b60006020820190508181036000830152610c8c8184610bfc565b905092915050565b610c9d81610b8a565b8114610ca857600080fd5b50565b600081359050610cba81610c94565b92915050565b610cc981610b54565b8114610cd457600080fd5b50565b600081359050610ce681610cc0565b92915050565b600080600080600060a08688031215610d0857610d076109cc565b5b600086013567ffffffffffffffff811115610d2657610d256109d1565b5b610d3288828901610add565b955050602086013567ffffffffffffffff811115610d5357610d526109d1565b5b610d5f88828901610add565b9450506040610d7088828901610cab565b9350506060610d8188828901610cab565b9250506080610d9288828901610cd7565b9150509295509295909350565b7f4e487b7100000000000000000000000000000000000000000000000000000000600052602260045260246000fd5b60006002820490506001821680610de657607f821691505b60208210811415610dfa57610df9610d9f565b5b50919050565b600081905092915050565b6000610e1682610907565b610e208185610e00565b9350610e30818560208601610923565b80840191505092915050565b6000610e488284610e0b565b915081905092915050565b7f50726f64756374206e6f742073616c6521000000000000000000000000000000600082015250565b6000610e89601183610912565b9150610e9482610e53565b602082019050919050565b60006020820190508181036000830152610eb881610e7c565b9050919050565b7f4e487b7100000000000000000000000000000000000000000000000000000000600052601160045260246000fd5b6000610ef982610b8a565b9150610f0483610b8a565b925082821015610f1757610f16610ebf565b5b828203905092915050565b7f50726f64756374206e6f7420666f756e64210000000000000000000000000000600082015250565b6000610f58601283610912565b9150610f6382610f22565b602082019050919050565b60006020820190508181036000830152610f8781610f4b565b9050919050565b6000610f9982610b8a565b9150610fa483610b8a565b9250827fffffffffffffffffffffffffffffffffffffffffffffffffffffffffffffffff03821115610fd957610fd8610ebf565b5b828201905092915050565b7f50726f6475637420696e20726561647921000000000000000000000000000000600082015250565b600061101a601183610912565b915061102582610fe4565b602082019050919050565b600060208201905081810360008301526110498161100d565b905091905056fea2646970667358221220348c185f777a099341bad8aaee50f948670b0edaec773d988ba2e2c66176394e64736f6c634300080b0033",
  "immutableReferences": {},
  "source": "// SPDX-License-Identifier: MIT\npragma solidity >=0.4.22 <0.9.0;\n\ncontract Pos {\n    //Contract Connection\n\n    string public connectionMessage = \"Connection Success Babe!\";\n\n    function getConnectionMessage() public view returns (string memory) {\n        return connectionMessage;\n    }\n\n    function setConnectionMessage(string memory _connectionMessage) public {\n        connectionMessage = _connectionMessage;\n    }\n\n    //Product\n\n    struct Product {\n        uint256 id;\n        string name;\n        uint256 price;\n        uint256 stock;\n        bool isSell;\n    }\n\n    mapping(string => Product) products;\n\n    uint256 productId = 0;\n\n    function getProductInfo(string memory _barcode)\n        public\n        view\n        returns (Product memory)\n    {\n        return products[_barcode];\n    }\n\n    function addProduct(\n        string memory _barcode,\n        string memory _name,\n        uint256 _price,\n        uint256 _stock,\n        bool _isSell\n    ) public returns (bool) {\n        if (products[_barcode].id != 0) {\n            revert(\"Product in ready!\");\n        }\n        productId += 1;\n        products[_barcode] = Product(productId, _name, _price, _stock, _isSell);\n        return true;\n    }\n\n    function editProduct(\n        string memory _barcode,\n        string memory _name,\n        uint256 _price,\n        uint256 _stock,\n        bool _isSell\n    ) public returns (bool) {\n        if (products[_barcode].id == 0) {\n            revert(\"Product not found!\");\n        }\n        productId += 1;\n        products[_barcode] = Product(productId, _name, _price, _stock, _isSell);\n        return true;\n    }\n\n    function sellProduct(string memory _barcode) public returns (bool) {\n        Product memory _product = products[_barcode];\n        if (_product.isSell == false || _product.stock == 0) {\n            revert(\"Product not sale!\");\n        }\n        _product.stock -= 1;\n\n        products[_barcode] = _product;\n        return true;\n    }\n}\n",
  "sourcePath": "/Users/hamditug/Desktop/studies/Blockchain/block-pos-app/network/contracts/Pos.sol",
  "compiler": {
    "name": "solc",
    "version": "0.8.11+commit.d7f03943.Emscripten.clang"
  },
  "schemaVersion": "3.4.4",
  "updatedAt": "2022-02-27T22:52:58.846Z",
  "networkType": "ethereum",
  "devdoc": {
    "kind": "dev",
    "methods": {},
    "version": 1
  },
  "userdoc": {
    "kind": "user",
    "methods": {},
    "version": 1
  }
}